:100000000C942E000C9441010C9441010C9441017C
:100010000C9441010C9441010C9441010C94410158
:100020000C9441010C9441010C9441010C94410148
:100030000C9441010C9441010C9441010C94410138
:100040000C9441010C9441010C9441010C94410128
:100050000C944101006000680002900011241FBE52
:10006000CFE5D4E0DEBFCDBFE4E5F0E040E017C06F
:10007000B591A59135912591059107FD0CC09591FC
:100080008591EF01F92FE82F05900D92A217B30784
:10009000D9F7FE0104C01D92A217B307E1F7EB35B3
:1000A000F40731F70E9418010C942801F894FFCF4F
:1000B000EF92FF920F931F93CF93DF93CDB7DEB7ED
:1000C00028970FB6F894DEBF0FBECDBF88E0E0E6FC
:1000D000F0E0DE01119601900D928A95E1F760E063
:1000E00080E40E940301E12CF12C1DC0F701EE0F0A
:1000F000FF1FEE0FFF1FEE0FFF1F81E090E08C0F40
:100100009D1FE80FF91FE00FF11F80810E9433014E
:100110000F5F1F4F02C000E010E00830110534F3FC
:100120009FEFE91AF90A1E141F04ACF728960FB6C0
:10013000F894DEBF0FBECDBFDF91CF911F910F911D
:06014000FF90EF9008950E
:100146008FE295E70197F1F700C0000083E00E9477
:10015600EC008FE39FE10197F1F700C0000083E018
:100166000E94EC0087EC90E00197F1F700C00000D8
:1001760083E00E94EC008FEC97E00197F1F700C056
:10018600000082E00E94EC008FEC97E00197F1F707
:1001960000C0000060E088E20E9403018FEC97E057
:1001A6000197F1F700C0000060E08CE00E940301B7
:1001B6008FEC97E00197F1F700C0000060E086E061
:1001C6000E9403018FEC97E00197F1F700C0000051
:0201D60008958A
:1001D8008295807F92B3986092BB95E89A95F1F7E3
:1001E800000092B39F7092BB92B3892B82BB82B3FB
:0E01F800877F82BB85E88A95F1F700000895A5
:10020600CF93C82F611104C082B38B7F82BB03C01A
:1002160082B3846082BB8C2F82958F700E94EC0023
:0A0226008C2F0E94EC00CF91089588
:100230000E943D010E94A3000E9458008FE19EE4AD
:100240000197F1F700C0000080E00E943301FFCF6A
:10025000EC010E9446010E944501CE010E94470127
:06026000CE010E944301E3
:1002660061E00E9403018FE19EE40197F1F700C06F
:0402760000000895E7
:08027A0012BA8FEF81BB089559
:040282000C940000D8
:040286000E9456007C
:02028A000895D5
:02028C000895D3
:02028E000895D1
:080290001F11111111111100E1
:00000001FF
