:100000000C942A000C94E0000C94E0000C94E000A6
:100010000C94E0000C94E0000C94E0000C94E000E0
:100020000C94E0000C94E0000C94E0000C94E000D0
:100030000C94E0000C94E0000C94E0000C94E000C0
:100040000C94E0000C94E0000C94E0000C94E000B0
:100050000C94E00011241FBECFE5D4E0DEBFCDBF7D
:0C0060000E9480000C94C000F894FFCFB8
:10006C008FE295E70197F1F700C0000083E00E9452
:10007C0096008FE097E20197F1F700C0000083E053
:10008C000E94960087EC90E00197F1F700C0000009
:10009C0083E00E9496008FEC97E00197F1F700C087
:1000AC00000082E00E9496008FEC97E00197F1F738
:1000BC0000C0000082E00E9496009AE69A95F1F743
:1000CC0000C060E088E20E94AB008AE68A95F1F7F6
:1000DC0000C060E08CE00E94AB009AE69A95F1F7C4
:1000EC0000C060E086E00E94AB008AE68A95F1F7DA
:0400FC0000C00895A3
:100100000E94D4000E94360060E070E080E00E940F
:10011000CB0084E40E94DC0089E40E94DC008DE4D2
:0C0120000E94DC0081E40E94DC00EACFB9
:10012C0098B3946098BB95E89A95F1F7000092B358
:10013C00907F92BB92B3892B82BB88B38B7F88BB99
:0A014C0085E88A95F1F70000089598
:10015600CF93C82F611104C088B38E7F88BB03C0BC
:1001660088B3816088BB8C2F82958F700E94960021
:0A0176008C2F0E949600CF9108958F
:10018000EC010E94E5000E94E400CE010E94E6001E
:06019000CE010E94E20016
:1001960090E4699F800D112460E080680E94AB00A6
:0201A6000895BA
:1001A8008FEF87BB81BB87E088BB8FE282BB089556
:0801B80061E00E94AB00089514
:0401C0000C9400009B
:0401C4000E94340061
:0201C800089598
:0201CA00089596
:0201CC00089594
:00000001FF
