:100000000C942A000C94D1000C94D1000C94D100D3
:100010000C94D1000C94D1000C94D1000C94D1001C
:100020000C94D1000C94D1000C94D1000C94D1000C
:100030000C94D1000C94D1000C94D1000C94D100FC
:100040000C94D1000C94D1000C94D1000C94D100EC
:100050000C94D10011241FBECFE5D4E0DEBFCDBF8C
:0C0060000E94CC000C94B900F894FFCF73
:10006C008FE295E70197F1F700C0000083E090E084
:10007C000E94830083E090E00E94830087EC90E074
:10008C000197F1F700C0000083E090E00E9483002C
:10009C008FEC97E00197F1F700C0000082E090E050
:1000AC000E9483008FEC97E00197F1F700C00000ED
:1000BC0060E070E088E290E00E94A5008FEC97E091
:1000CC000197F1F700C0000060E070E08CE090E078
:1000DC000E94A5008FEC97E00197F1F700C000009B
:1000EC0060E070E086E090E00E94A5008FEC97E065
:0A00FC000197F1F700C0000008951D
:10010600EFE2F5E73197F1F700C0000098B390628F
:1001160098BBFFE728E331E0F15020403040E1F79B
:1001260000C0000092B312BA82BB88B38F7D88BB31
:100136008FE798E3E1E081509040E040E1F700C0AE
:040146000000089518
:10014A00CF93611104C098B39F7798BB03C098B34B
:10015A00906898BBC82FC295CF700E9483008C2FDD
:08016A000E948300CF9108956B
:10017200EC010E94D6000E94D500CE010E94D70059
:06018200CE010E94D30033
:100188008FEF87BB81BB80EE88BB84EF82BB08956D
:0A0198000E94C4000E943600FBCF55
:0401A2000C940000B9
:0401A6000E9434007F
:0201AA000895B6
:0201AC000895B4
:0201AE000895B2
:00000001FF
