:100000000C942A000C94DF000C94DF000C94DF00A9
:100010000C94DF000C94DF000C94DF000C94DF00E4
:100020000C94DF000C94DF000C94DF000C94DF00D4
:100030000C94DF000C94DF000C94DF000C94DF00C4
:100040000C94DF000C94DF000C94DF000C94DF00B4
:100050000C94DF0011241FBECFE5D4E0DEBFCDBF7E
:0C0060000E94C9000C94BE00F894FFCF71
:02006C006E0024
:10006E008FE295E70197F1F700C0000083E090E082
:10007E000E9494008FE097E20197F1F700C0000014
:10008E0083E090E00E9494008FE891E00197F1F7F1
:10009E0000C0000083E090E00E9494008FEC97E097
:1000AE000197F1F700C0000082E090E00E949400FA
:1000BE008FEC97E00197F1F700C0000082E090E02E
:1000CE000E9494008FEC97E00197F1F700C00000BA
:1000DE0060E070E088E290E00E94A9008FEC97E06B
:1000EE000197F1F700C0000060E070E08CE090E056
:1000FE000E94A9008FEC97E00197F1F700C0000075
:10010E0060E070E086E090E00E94A9008FEC97E03E
:0A011E000197F1F700C000000895FA
:1001280098B3946098BB95E89A95F1F7000092B35C
:10013800907F92BB92B3892B82BB88B38B7F88BB9D
:0A01480085E88A95F1F7000008959C
:10015200CF93C82F611104C088B38E7F88BB03C0C0
:1001620088B3816088BB8C2F82958F700E94940027
:0A0172008C2F0E949400CF91089595
:10017C00EC010E94E4000E94E300CE010E94E50025
:06018C00CE010E94E1001B
:100192000E94D3000E9437008CE690E0A0E00E940B
:0401A200DB00F6CFB9
:1001A6008FEF87BB81BB87E088BB8FE282BB089558
:0801B60061E00E94A900089518
:0401BE000C9400009D
:0401C2000E94340063
:0201C60008959A
:0201C800089598
:0201CA00089596
:00000001FF
