:100000000C942A000C944C000C944C000C944C0062
:100010000C944C000C944C000C944C000C944C0030
:100020000C944C000C944C000C944C000C944C0020
:100030000C944C000C944C000C944C000C944C0010
:100040000C944C000C944C000C944C000C944C0000
:100050000C944C0011241FBECFE5D4E0DEBFCDBF11
:0C0060000E9449000C943600F894FFCF79
:10006C00EC010E9451000E945000CE010E945200EF
:06007C00CE010E944E00BF
:100082008FEF87BB81BB80EE88BB84EF82BB089574
:060092000E944100FDCFB9
:040098000C940000C4
:04009C000E9434008A
:0200A0000895C1
:0200A2000895BF
:0200A4000895BD
:00000001FF
