:100000000C942A000C94E3000C94E3000C94E3009D
:100010000C94E3000C94E3000C94E3000C94E300D4
:100020000C94E3000C94E3000C94E3000C94E300C4
:100030000C94E3000C94E3000C94E3000C94E300B4
:100040000C94E3000C94E3000C94E3000C94E300A4
:100050000C94E30011241FBECFE5D4E0DEBFCDBF7A
:0C0060000E94CD000C94C200F894FFCF69
:02006C006E0024
:10006E008FE295E70197F1F700C0000083E090E082
:10007E000E9488009AE69A95F1F700C083E090E01E
:10008E000E94880087EC90E00197F1F700C0000015
:10009E0083E090E00E9488008FEC97E00197F1F7E3
:1000AE0000C0000082E090E00E9488008FEC97E094
:1000BE000197F1F700C0000060E070E088E290E088
:1000CE000E94AD008FEC97E00197F1F700C00000A1
:1000DE0060E070E08CE090E00E94AD008FEC97E065
:1000EE000197F1F700C0000060E070E086E090E05C
:1000FE000E94AD008FEC97E00197F1F700C0000071
:02010E00089552
:10011000EFE2F5E73197F1F700C0000098B3906285
:1001200098BBFFE728E331E0F15020403040E1F791
:1001300000C0000092B3907D92BB92B3892B82BB2A
:1001400088B38F7D88BB8FE798E3E1E081509040D2
:0A015000E040E1F700C00000089550
:10015A00CF93C82F611104C088B38F7788BB03C0BF
:10016A0088B3806888BB8C2F82958F700E94880024
:0A017A008C2F0E948800CF91089599
:10018400EC010E94E8000E94E700CE010E94E90011
:06019400CE010E94E5000F
:10019A000E94D7000E9437008CE690E0A0E00E94FF
:0401AA00DF00F6CFAD
:1001AE008FEF87BB81BB87E088BB8FE082BB089552
:0801BE0061E00E94AD0008950C
:0401C6000C94000095
:0401CA000E9434005B
:0201CE00089592
:0201D000089590
:0201D20008958E
:00000001FF
